{
  "_format": "hh-sol-artifact-1",
  "contractName": "Greeter",
  "sourceName": "contracts/Greeter.sol",
  "abi": [
    {
      "inputs": [
        {
          "internalType": "string",
          "name": "_greeting",
          "type": "string"
        }
      ],
      "stateMutability": "nonpayable",
      "type": "constructor"
    },
    {
      "inputs": [],
      "name": "greet",
      "outputs": [
        {
          "internalType": "string",
          "name": "",
          "type": "string"
        }
      ],
      "stateMutability": "view",
      "type": "function"
    },
    {
      "inputs": [
        {
          "internalType": "string",
          "name": "_greeting",
          "type": "string"
        }
      ],
      "name": "setGreeter",
      "outputs": [],
      "stateMutability": "nonpayable",
      "type": "function"
    }
  ],
  "bytecode": "0x608060405234801561001057600080fd5b50604051610d1d380380610d1d833981810160405281019061003291906102e8565b61005a604051806060016040528060228152602001610cfb602291398261007060201b60201c565b80600090816100699190610552565b50506106d4565b61010e828260405160240161008692919061066e565b6040516020818303038152906040527f4b5c4277000000000000000000000000000000000000000000000000000000007bffffffffffffffffffffffffffffffffffffffffffffffffffffffff19166020820180517bffffffffffffffffffffffffffffffffffffffffffffffffffffffff838183161783525050505061011260201b60201c565b5050565b6101338161012e61013660201b6101d41761015760201b60201c565b60201c565b50565b60006a636f6e736f6c652e6c6f679050600080835160208501845afa505050565b61016960201b6102b917819050919050565b6101716106a5565b565b6000604051905090565b600080fd5b600080fd5b600080fd5b600080fd5b6000601f19601f8301169050919050565b7f4e487b7100000000000000000000000000000000000000000000000000000000600052604160045260246000fd5b6101da82610191565b810181811067ffffffffffffffff821117156101f9576101f86101a2565b5b80604052505050565b600061020c610173565b905061021882826101d1565b919050565b600067ffffffffffffffff821115610238576102376101a2565b5b61024182610191565b9050602081019050919050565b60005b8381101561026c578082015181840152602081019050610251565b60008484015250505050565b600061028b6102868461021d565b610202565b9050828152602081018484840111156102a7576102a661018c565b5b6102b284828561024e565b509392505050565b600082601f8301126102cf576102ce610187565b5b81516102df848260208601610278565b91505092915050565b6000602082840312156102fe576102fd61017d565b5b600082015167ffffffffffffffff81111561031c5761031b610182565b5b610328848285016102ba565b91505092915050565b600081519050919050565b7f4e487b7100000000000000000000000000000000000000000000000000000000600052602260045260246000fd5b6000600282049050600182168061038357607f821691505b6020821081036103965761039561033c565b5b50919050565b60008190508160005260206000209050919050565b60006020601f8301049050919050565b600082821b905092915050565b6000600883026103fe7fffffffffffffffffffffffffffffffffffffffffffffffffffffffffffffffff826103c1565b61040886836103c1565b95508019841693508086168417925050509392505050565b6000819050919050565b6000819050919050565b600061044f61044a61044584610420565b61042a565b610420565b9050919050565b6000819050919050565b61046983610434565b61047d61047582610456565b8484546103ce565b825550505050565b600090565b610492610485565b61049d818484610460565b505050565b5b818110156104c1576104b660008261048a565b6001810190506104a3565b5050565b601f821115610506576104d78161039c565b6104e0846103b1565b810160208510156104ef578190505b6105036104fb856103b1565b8301826104a2565b50505b505050565b600082821c905092915050565b60006105296000198460080261050b565b1980831691505092915050565b60006105428383610518565b9150826002028217905092915050565b61055b82610331565b67ffffffffffffffff811115610574576105736101a2565b5b61057e825461036b565b6105898282856104c5565b600060209050601f8311600181146105bc57600084156105aa578287015190505b6105b48582610536565b86555061061c565b601f1984166105ca8661039c565b60005b828110156105f2578489015182556001820191506020850194506020810190506105cd565b8683101561060f578489015161060b601f891682610518565b8355505b6001600288020188555050505b505050505050565b600082825260208201905092915050565b600061064082610331565b61064a8185610624565b935061065a81856020860161024e565b61066381610191565b840191505092915050565b600060408201905081810360008301526106888185610635565b9050818103602083015261069c8184610635565b90509392505050565b7f4e487b7100000000000000000000000000000000000000000000000000000000600052605160045260246000fd5b610618806106e36000396000f3fe608060405234801561001057600080fd5b50600436106100365760003560e01c8063190663e41461003b578063cfae321714610057575b600080fd5b6100556004803603810190610050919061041d565b610075565b005b61005f610142565b60405161006c91906104e5565b60405180910390f35b61013f6040518060400160405280601e81526020017f4368616e67696e67206772656574696e67202725732720746f20272573270000815250600080546100bb90610536565b80601f01602080910402602001604051908101604052809291908181526020018280546100e790610536565b80156101345780601f1061010957610100808354040283529160200191610134565b820191906000526020600020905b81548152906001019060200180831161011757829003601f168201915b5050505050836101f5565b50565b60606000805461015190610536565b80601f016020809104026020016040519081016040528092919081815260200182805461017d90610536565b80156101ca5780601f1061019f576101008083540402835291602001916101ca565b820191906000526020600020905b8154815290600101906020018083116101ad57829003601f168201915b5050505050905090565b60006a636f6e736f6c652e6c6f679050600080835160208501845afa505050565b61028f83838360405160240161020d93929190610567565b6040516020818303038152906040527f2ced7cef000000000000000000000000000000000000000000000000000000007bffffffffffffffffffffffffffffffffffffffffffffffffffffffff19166020820180517bffffffffffffffffffffffffffffffffffffffffffffffffffffffff8381831617835250505050610294565b505050565b6102ab816102a36101d46102ae565b63ffffffff16565b50565b6102b9819050919050565b6102c16105b3565b565b6000604051905090565b600080fd5b600080fd5b600080fd5b600080fd5b6000601f19601f8301169050919050565b7f4e487b7100000000000000000000000000000000000000000000000000000000600052604160045260246000fd5b61032a826102e1565b810181811067ffffffffffffffff82111715610349576103486102f2565b5b80604052505050565b600061035c6102c3565b90506103688282610321565b919050565b600067ffffffffffffffff821115610388576103876102f2565b5b610391826102e1565b9050602081019050919050565b82818337600083830152505050565b60006103c06103bb8461036d565b610352565b9050828152602081018484840111156103dc576103db6102dc565b5b6103e784828561039e565b509392505050565b600082601f830112610404576104036102d7565b5b81356104148482602086016103ad565b91505092915050565b600060208284031215610433576104326102cd565b5b600082013567ffffffffffffffff811115610451576104506102d2565b5b61045d848285016103ef565b91505092915050565b600081519050919050565b600082825260208201905092915050565b60005b838110156104a0578082015181840152602081019050610485565b60008484015250505050565b60006104b782610466565b6104c18185610471565b93506104d1818560208601610482565b6104da816102e1565b840191505092915050565b600060208201905081810360008301526104ff81846104ac565b905092915050565b7f4e487b7100000000000000000000000000000000000000000000000000000000600052602260045260246000fd5b6000600282049050600182168061054e57607f821691505b60208210810361056157610560610507565b5b50919050565b6000606082019050818103600083015261058181866104ac565b9050818103602083015261059581856104ac565b905081810360408301526105a981846104ac565b9050949350505050565b7f4e487b7100000000000000000000000000000000000000000000000000000000600052605160045260246000fdfea2646970667358221220e24f9aa738556a1ece9a3d017861781377bf9bf2e0ed1eab240787a70e437a4f64736f6c634300081b00334465706c6f74756e67206120477265657465722077697468206772656574696e673a",
  "linkReferences": {},
  "deployedLinkReferences": {}
}